:1000000050C0D8C169C068C067C066C065C064C060
:1000100063C062C061C060C05FC05EC05DC00902F5
:100020002200010100801909040000010300000002
:100030000921010100012223000705810308000AAC
:100040001201100100000008424231E100010102EA
:100050000001160345006100730079004C006F0039
:10006000670067006500720012036F0062006400A1
:10007000650076002E006100740004030904050188
:100080000906A101050719E029E7150025017501F9
:10009000950881029501750825651900296581007B
:1000A000C00011241FBECFE5D1E0DEBFCDBF10E000
:1000B000A0E6B0E0E6E0F9E002C005900D92A236BD
:1000C000B107D9F720E0A2E6B0E001C01D92A33B42
:1000D000B207E1F743D315C493CFCF93C62F209136
:1000E000880024FF1CC02091890038E82327209332
:1000F0008900EAE8F0E09C01D9012F5F3F4F9C9115
:1001000091939C2F921B980F1916B4F36C2F8AE8C9
:1001100090E039D1CC5FC0938800CF9108952AE553
:1001200020938800E6CFCF93DF938091990083508E
:1001300087FD27C0909195009D3209F58830F9F42C
:1001400080919600CCE0D0E0C81BD109C356DF4FA8
:1001500083EC80937D008AE58093610010926300B8
:100160008881807609F46BC0CE018FD29F81911176
:1001700004C09E81981708F4892F80936000109224
:1001800099008091610084FF42C0809160008F3FA0
:1001900009F43DC0C82F893008F0C8E0982F9C1B97
:1001A0009093600090917D0028E8922790937D00C5
:1001B000882301F18091970090919800209163002D
:1001C00026FFB5C0FC012EE730E04C2F480F5491BC
:1001D000D9015C932F5F3F4F31964E13F8CF2FEF2D
:1001E0002C0F30E02F5F3F4F820F931F90939800AA
:1001F000809397006C2F8EE790E0C5D084E08C0F41
:10020000C83019F09FEF909360008093610084E103
:1002100096B3957031F48150D9F710929A001092EC
:100220009400C1E08111C0E090916200C91721F0F3
:1002300081114DD2C0936200DF91CF9108952A8140
:1002400010928600998191110AC01092870026E8C9
:1002500030E082E0309398002093970087CF95306C
:1002600029F420939A0026E830E0F4CF963009F084
:1002700047C09B81913041F480E490E090939800D6
:100280008093970082E109C0923059F48EE190E0AA
:10029000909398008093970082E290E4909363009B
:1002A00065CF9330C9F4211108C08AE790E090939C
:1002B00098008093970084E0F0CF213019F488E60D
:1002C00090E0DCCF223049F782E590E090939800EF
:1002D0008093970086E1E1CF913241F480E390E092
:1002E000909398008093970089E0D7CF9232A9F637
:1002F0008EE790E0909398008093970083E2CDCFB3
:10030000983071F0993019F420939C00ACCF9A305A
:1003100059F09B3009F0A7CF9BE490938900A3CFBD
:100320002CE930E081E096CF26E830E0FBCFAEE765
:10033000B0E0FC012C2F280F31913D932E13FCCF00
:100340004ECF85B7836085BF8BB780648BBFE8E8ED
:10035000F0E08BE481838AE580830895A82FB92F8C
:1003600080E090E041E050EA609530E009C02D91D6
:1003700082279795879510F084279527305EC8F3DC
:100380006F5FA8F30895EADF8D939D930895A6E02B
:1003900088279927AA9569F00197E1F3B099FCCFD6
:1003A000B09BFECF81E09927A6B3019611F0A5700E
:1003B000D9F70895CF93CFB7CF93C395B09BE9F703
:1003C000B09B0BC0B09B09C0B09B07C0B09B05C0E1
:1003D000B09B03C0B09B01C0D5C00F92DF93C0910A
:1003E0009600DD27C356DF4F012EB09B03C0DF917F
:1003F0000F90E6CF2F930F931F934F932FEF4F6FD5
:1004000006B300FB20F95F933F9350E03BE065C0EB
:1004100016B30126502950FDC89556B3012700FB9D
:1004200025F92F7306B3B1F05027102710FB26F9DA
:1004300006B22230F0F000C016B3012700FB27F906
:100440000126502906B22430E8F54F77206816B30C
:100450000000F6CF50274F7D206206B2102F00001B
:1004600000C006B300265029102710FB26F906B25B
:10047000E2CF4F7B06B3206400C0DACF01265029BB
:10048000157006B269F14E7F2160012F16B328C0A6
:10049000002650294D7F06B22260102F29C0012668
:1004A00050294B7F06B22460012F2DC016B30126C0
:1004B0005029477F2860000006B22EC04F7E06B349
:1004C000206130C0422706B34993002650291027E7
:1004D00006B24FEF10FB20F9297F16B379F21570A1
:1004E00059F10126502906B2012700FB21F9237F8B
:1004F00006B371F2002650293150D0F006B2102711
:1005000010FB22F9277E16B351F20126502901274C
:1005100000FB06B223F92F7C49F2000006B3102736
:1005200010FB24F90026502906B22F7939F270CF3A
:1005300010E41ABF002719C03B503195C31BD040AF
:1005400010E41ABF0881033C09F10B34F9F0209143
:1005500094001981110F1213EDCF4A81441F0936FF
:1005600051F10D3211F0013E29F700939B003F91AC
:100570005F914F911F910F912F91DF910F90CAB70B
:10058000C6FD1BCFCF91CFBFCF91189520919B0077
:10059000222369F310919900112379F534307AF10F
:1005A0003093990020939500109196003BE0311B09
:1005B0003093960024C0009199000130F4F40AE5CC
:1005C0004F7049F43091610034FD1AC0009361000E
:1005D000CDE7D0E019C03091880034FD11C0009300
:1005E0008800C9E8D0E010C0052710E000C021C095
:1005F000052710E0C89508BB14C03AE501C032EDEC
:10060000032EC0E0D0E032E017B31560C09A08B303
:1006100017BB55E020E84FEF20FF052708BB2795C3
:1006200017951C3F28F700004552B0F720FF05271B
:10063000279508BB17951C3FB8F629913A9561F7A5
:100640000A7F10919A00110F08BBC250D04011F0E0
:100650001093940010E41ABF016017B31A7F402F63
:100660004A7F54E05A95F1F708BB17BB48BB7FCFD0
:10067000E0916600F091670080E0309709F080819A
:1006800010927B0080937C000895FC018BE790E042
:100690009093980080939700808180768032A9F4AF
:1006A0008181813019F4E4DF82E00895823041F4E1
:1006B0008AE790E0909398008093970081E00895F6
:1006C0008A3019F4838180937A0080E00895DF9264
:1006D000EF92FF920F931F93CF93DF93F89488E0EC
:1006E000E82EF12CC0E0D0E8DD2EDC0ED1BE4FDECE
:1006F0008C01043389E018070CF4CD2DD69581E0E8
:10070000E81AF10889F78FEF8C0F81BFEC2EF12CDE
:100710008FEFE81AF80A81B78E151F0471F06CF09C
:10072000C1BF789461B790E080E0DF91CF911F91D5
:100730000F91FF90EF90DF90D6C029DE845399404F
:1007400097FF03C09195819591098017910714F443
:10075000C1B78C0181B78F5F81BFDDCF90E080E0B2
:10076000BAD08F3F09F081BFB89A84E1E2EBF1EF94
:100770003197F1F700C000008150C1F7B898BC9ADA
:10078000C19A88E19EE00FB6F894A89581BD0FBE8E
:1007900091BD8BE080BF83E987B987E886B9D1DD59
:1007A000789414E001E0FF24FA9468E2E62ECAE0AF
:1007B000D0E077E2D72EA895B6DC8091880084FF40
:1007C0001CC08091660090916700892BB1F050DFCA
:1007D00062E08BE790E081DCE0916600F0916700D9
:1007E000CF010196909367008093660081818F3FCF
:1007F00021F4109267001092660008B602FE1CC039
:1008000018BF86B3827090916400891771F080934D
:10081000640081110AC08091780091E0811190E01C
:1008200090937800811134C0C49A809165008F5FE5
:100830008F3380F58093650080917900882309F4D7
:10084000BACF3699B8CF1092790084B195B19C0196
:1008500036952795880F991F280F391FF09277003A
:1008600010927600E0927500E3E7F0E0C901BE0166
:100870001ED0D9019B01AF0111820097A9F4D0824B
:1008800032971A9798F7409366005093670093CF7A
:10089000C498CBCF1092650080917800882361F2D4
:1008A00000937900369AC8CF835E8083E9CFAA1B74
:1008B000BB1B51E107C0AA1FBB1FA617B70710F04B
:1008C000A61BB70B881F991F5A95A9F7809590957D
:1008D000BC01CD010895E199FECF1FBA8EBBE09A0D
:1008E00099278DB30895262FE199FECF1CBA1FBA20
:1008F0008EBB2DBB0FB6F894E29AE19A0FBE01961B
:060900000895F894FFCFFA
:02090600FF5A96
:00000001FF
