:1000000050C0DAC169C068C067C066C065C064C05E
:1000100063C062C061C060C05FC05EC05DC00902F5
:100020002200010100801909040000010300000002
:100030000921010100012223000705810308000AAC
:100040001201100100000008424231E100010102EA
:100050000001160345006100730079004C006F0039
:10006000670067006500720012036F0062006400A1
:10007000650076002E006100740004030904050188
:100080000906A101050719E029E7150025017501F9
:10009000950881029501750825651900296581007B
:1000A000C00011241FBECFE5D1E0DEBFCDBF10E000
:1000B000A0E6B0E0EEE0F9E002C005900D92A236B5
:1000C000B107D9F710E0A2E6B0E001C01D92A33B52
:1000D000B107E1F745D319C493CFCF93C62F209131
:1000E000880024FF07C02091890038E82327209347
:1000F000890003C02AE5209388002C2FFC01AAE880
:10010000B0E081918D9321501216DCF38AE890E0E3
:100110006C2F3BD1CC5FC0938800CF910895CF93D3
:10012000DF9380919900835087FDABC020919600AA
:10013000909195009D3209F0A2C0883009F09FC0CF
:100140008CE090E0821B9109EC01C356DF4F23EC59
:1001500020937D002AE520936000109262002881A0
:10016000207619F0CE0194D281C03A811092860097
:100170002981222331F41092870026E830E082E0C2
:1001800071C0253019F430939A0069C0263009F007
:1001900050C0FC01E156FF4F208180569F4FFC016B
:1001A0008081813019F480E490E01AC0823041F4FB
:1001B0008EE190E0909398008093970082E235C0A2
:1001C0008330F1F4222341F48AE790E09093980081
:1001D0008093970084E029C0213041F488E690E0C4
:1001E000909398008093970082E11FC02230E1F441
:1001F00082E590E0909398008093970086E115C087
:10020000813241F480E390E09093980080939700CE
:1002100089E00BC0823241F48EE790E09093980021
:100220008093970083E201C080E090E490936200A5
:100230001DC0283069F0293019F430939C000FC09C
:100240002A3049F02B3059F48BE48093890007C0A1
:100250002CE930E002C026E830E081E003C026E867
:1002600030E080E030939800209397009F8199239D
:1002700021F49E81981708F4892F809361001092D1
:1002800099008091600084FF45C0809161008F3F9C
:1002900009F440C0C82F893008F0C8E08C1B809357
:1002A000610080917D0098E8892780937D00CC23B0
:1002B00029F180919700909198002091620026FF8B
:1002C0000AC0FC012C2FAEE7B0E034913D9331968B
:1002D0002150D9F708C0DC012C2FEEE7F0E03D916A
:1002E00031932150E1F72C2F215030E02F5F3F4F09
:1002F000280F391F30939800209397008EE790E0E5
:100300006C2F43D0CC5FCC3019F08FEF809361001D
:10031000C093600084E196B3957031F48150D9F7B1
:1003200010929A0010929400C1E08111C0E0809177
:1003300063008C1729F0CC2309F4CED1C09363005D
:10034000DF91CF91089585B7836085BF8BB78064B7
:100350008BBF8BE4809389008AE5809388000895A1
:10036000A82FB92F80E090E041E050EA609530E09E
:1003700009C02D9182279795879510F0842795279E
:10038000305EC8F36F5FA8F30895EADF8D939D9305
:100390000895A6E088279927AA9569F00197E1F3C7
:1003A000B099FCCFB09BFECF81E09927A6B3019610
:1003B00011F0A570D9F70895CF93CFB7CF93C39518
:1003C000B09BE9F7B09B0BC0B09B09C0B09B07C0C6
:1003D000B09B05C0B09B03C0B09B01C0D5C00F92BD
:1003E000DF93C0919600DD27C356DF4F012EB09BEF
:1003F00003C0DF910F90E6CF2F930F931F934F937E
:100400002FEF4F6F06B300FB20F95F933F9350E04F
:100410003BE065C016B30126502950FDC89556B380
:10042000012700FB25F92F7306B3B1F050271027E1
:1004300010FB26F906B22230F0F000C016B30127F7
:1004400000FB27F90126502906B22430E8F54F7742
:10045000206816B30000F6CF50274F7D206206B209
:10046000102F000000C006B300265029102710FBF3
:1004700026F906B2E2CF4F7B06B3206400C0DACF84
:1004800001265029157006B269F14E7F2160012FB7
:1004900016B328C0002650294D7F06B22260102FC7
:1004A00029C0012650294B7F06B22460012F2DC0A0
:1004B00016B301265029477F2860000006B22EC0DF
:1004C0004F7E06B3206130C0422706B34993002611
:1004D0005029102706B24FEF10FB20F9297F16B3E1
:1004E00079F2157059F10126502906B2012700FB57
:1004F00021F9237F06B371F2002650293150D0F044
:1005000006B2102710FB22F9277E16B351F20126FE
:100510005029012700FB06B223F92F7C49F2000085
:1005200006B3102710FB24F90026502906B22F79B4
:1005300039F270CF10E41ABF002719C03B50319533
:10054000C31BD04010E41ABF0881033C09F10B34EF
:10055000F9F0209194001981110F1213EDCF4A8107
:10056000441F093651F10D3211F0013E29F7009375
:100570009B003F915F914F911F910F912F91DF91C0
:100580000F90CAB7C6FD1BCFCF91CFBFCF911895A3
:1005900020919B00222369F310919900112379F592
:1005A00034307AF1309399002093950010919600A1
:1005B0003BE0311B3093960024C00091990001303C
:1005C000F4F40AE54F7049F43091600034FD1AC02C
:1005D00000936000CDE7D0E019C03091880034FD71
:1005E00011C000938800C9E8D0E010C0052710E0D2
:1005F00000C021C0052710E0C89508BB14C03AE52B
:1006000001C032ED032EC0E0D0E032E017B3156038
:10061000C09A08B317BB55E020E84FEF20FF05272D
:1006200008BB279517951C3F28F700004552B0F7E7
:1006300020FF0527279508BB17951C3FB8F6299181
:100640003A9561F70A7F10919A00110F08BBC250CA
:10065000D04011F01093940010E41ABF016017B35A
:100660001A7F402F4A7F54E05A95F1F708BB17BB19
:1006700048BB7FCFE0916700F0916800309711F0A0
:10068000808101C080E0109264008093650008952D
:10069000FC0184E690E0909398008093970080811D
:1006A00080768032A9F48181813019F4E3DF82E021
:1006B0000895823041F486E690E09093980080930C
:1006C000970081E008958A3029F483818093660041
:1006D00080E0089580E00895DF92EF92FF920F93FB
:1006E0001F93CF93DF93F894C8E0D0E010E000E8C8
:1006F000D02ED10ED1BE4DDE7C0184E3E81689E018
:10070000F8060CF41D2D0695219791F7812F815045
:1007100081BFC12FD0E0219610C03BDE84539940A9
:1007200097FF03C0909581959F4F8E159F0514F4F8
:1007300011B77C0181B78F5F81BF81B790E0C81787
:10074000D9075CF711BF789461B780E090E0CFD013
:10075000DF91CF911F910F91FF90EF90DF9008955F
:1007600080E090E0BCD08F3F09F081BFB89A84E16F
:10077000E2EBF1EF3197F1F700C000008150C1F7D3
:10078000B898BC9AC19A2EE088E190E00FB6F89430
:10079000A89581BD0FBE21BD8BE080BF83E987B9DD
:1007A00087E886B9D0DD7894C4E0D1E01FEF08E295
:1007B0006AE0C62ED12C77E2F72EA895B0DC8091A6
:1007C000880084FF1CC080916700909168000097AA
:1007D000B1F050DF84E690E062E07FDCE0916700FA
:1007E000F0916800CF0101969093680080936700B4
:1007F00081818F3F21F4109268001092670008B643
:1008000002FE27C0C8BF86B3827090916A00981715
:1008100081F080936A00882361F481E090916B00FD
:10082000911180E080936B00882311F0C49A01C07D
:10083000C49880916C008F5F80936C008F3348F078
:1008400010926C0080916B00882319F0D09369009E
:10085000369A80916900882309F4AFCF3699ADCFDD
:100860001092690024B135B1C901880F991F3695DE
:100870002795820F931F10937C0010927B000093AA
:100880007A002AE730E0B60116D0482FCB01F901F3
:1008900031971082F9013297442311F4F08202C09B
:1008A000435E40839F016115710569F7F09368000D
:1008B000E093670082CFAA1BBB1B51E107C0AA1FB0
:1008C000BB1FA617B70710F0A61BB70B881F991FF1
:1008D0005A95A9F780959095BC01CD010895E199AD
:1008E000FECF1FBA8EBBE09A99278DB30895262FAD
:1008F000E199FECF1CBA1FBA8EBB2DBB0FB6F89480
:0E090000E29AE19A0FBE01960895F894FFCF97
:02090E005AFF8E
:00000001FF
